:020000040000fa
:080000000002040000000000f2
:020000040000fa
:100008009402000094020000940200009402000090
:100018009402000094020000940200009402000080
:1000280094020000940200009402000046080000b8
:100038009402000094020000940200009402000060
:100048009402000094020000940200009402000050
:100058009402000094020000940200009402000040
:100068009402000094020000940200009402000030
:100078009402000094020000940200009402000020
:100088009402000094020000940200009402000010
:100098009402000094020000940200009402000000
:1000a80094020000940200009402000094020000f0
:1000b80094020000940200009402000094020000e0
:1000c80094020000940200009402000094020000d0
:1000d80094020000940200009402000094020000c0
:1000e80094020000940200009402000094020000b0
:1000f80094020000940200009402000094020000a0
:10010800940200009402000094020000940200008f
:10011800940200009402000094020000940200007f
:10012800940200009402000094020000940200006f
:10013800940200009402000094020000940200005f
:10014800940200009402000094020000940200004f
:10015800940200009402000094020000940200003f
:10016800940200009402000094020000940200002f
:10017800940200009402000094020000940200001f
:10018800940200009402000094020000940200000f
:1001980094020000940200009402000094020000ff
:1001a80094020000940200009402000094020000ef
:1001b80094020000940200009402000094020000df
:1001c80094020000940200009402000094020000cf
:1001d80094020000940200009402000094020000bf
:1001e80094020000940200009402000094020000af
:0801f8009402000094020000d3
:020000040000fa
:10020800940200009402000094020000940200008e
:10021800940200009402000094020000940200007e
:1002280094020000940200009402000046080000b6
:10023800940200009402000094020000940200005e
:10024800940200009402000094020000940200004e
:10025800940200009402000094020000940200003e
:10026800940200009402000094020000940200002e
:10027800940200009402000094020000940200001e
:10028800940200009402000094020000940200000e
:1002980094020000940200009402000094020000fe
:1002a80094020000940200009402000094020000ee
:1002b80094020000940200009402000094020000de
:1002c80094020000940200009402000094020000ce
:1002d80094020000940200009402000094020000be
:1002e80094020000940200009402000094020000ae
:1002f800940200009402000094020000940200009e
:10030800940200009402000094020000940200008d
:10031800940200009402000094020000940200007d
:10032800940200009402000094020000940200006d
:10033800940200009402000094020000940200005d
:10034800940200009402000094020000940200004d
:10035800940200009402000094020000940200003d
:10036800940200009402000094020000940200002d
:10037800940200009402000094020000940200001d
:10038800940200009402000094020000940200000d
:1003980094020000940200009402000094020000fd
:1003a80094020000940200009402000094020000ed
:1003b80094020000940200009402000094020000dd
:1003c80094020000940200009402000094020000cd
:1003d80094020000940200009402000094020000bd
:1003e80094020000940200009402000094020000ad
:0803f8009402000094020000d1
:020000040000fa
:100400006f9320000e7f22000e0188000000000084
:1004100000012000200288000c00070040e42000ba
:100420000100200011000700000020000000e00093
:10043000020032000000020000000000f80202008a
:10044000000000000040da000000fe004440a90067
:10045000000120000000e000030032000000200046
:10046000a00188004440a800000006009101880017
:10047000800078000000eb0015003700e2804000ab
:1004800032a0b4009101ba00e280400032a0b40072
:100490009102ba00e280400032a0b4000002eb00fa
:1004a000472bde00f507b200602ce10004003a00a3
:1004b0000059eb008301e900fdff3e000400370016
:1004c0006128e100010032000082eb000400070017
:1004d0001101ba000200e000e8ff3a000000060047
:1004e0003159ba008301e9000c0032002159ba00e9
:1004f0008301e900080032000400e00003003a0034
:10050000e280400032a0b400f5ff370011d9ba00f4
:100510008301e900faff3a008100e800e180400031
:1005200032a0b400000006000040da000000fe0027
:10053000800178008103780007027800010037000d
:1005400085017800110009000282d80000027800bd
:100550008302e800e00f5200f9ff3a00844a780075
:10056000110009008283d8008002780001427800df
:1005700085037800e94f52000100340067424200d1
:1005800001c3b30081514200e08f5200f4ff3a00f2
:100590000300780000000600881f7800000478003f
:1005a000e08f500005003d0008007800d4c2b30081
:1005b000045878008100ea00010037000800780044
:1005c000dbff0700080078004f04780000000600f9
:020000040000fa
:1005d00053540000415200005455000050200000c8
:1005e000444f00004e450000000d00000a000000ce
:020000040000fa
:1005f0000400fa00000f780011079800042c220074
:10060000143a88000002eb00243a880040a7a900b1
:1006100004012000041688000002eb003416880054
:100620000002eb009416880004012000f4168800f4
:100630000082eb006419880005040700408b20004d
:100640004301070000802000240107004600070046
:1006500012030700430507000a0037009449800091
:100660000402e800944988009549800004352c0074
:10067000848f520003003a00a44980000402e8007d
:10068000a4498800a4498000e30f5200f3ff36001c
:10069000802e28009d040700502f28009b0407008f
:1006a000438b2000a28b200011c0b30000802000eb
:1006b00069010700438b2000228d200011c0b30088
:1006c0000080200088010700004278000482fb00bf
:1006d0008449880084498000e00f520003003a00fa
:1006e000744980000402e80074498800438b2000ac
:1006f000a28b200011c0b300c0802000560107006b
:10070000438b2000228d200011c0b300c080200048
:1007100075010700004278000482fb0084498800cc
:1007200084498000e00f520003003a0074498000c1
:100730000402e8007449880074498000044278008b
:100740002290200081c0b30004407800140007000c
:1007500024902000040078006c040700502f28002b
:100760006a040700ceff37000000fa00840c200066
:10077000140888002405800004c0a00004d0a10053
:1007800004e0a00024058800040028002408880054
:100790008460a9009460a8000080fa0000000600b0
:1007a0000600fa0020479800314798002207980079
:1007b0000002eb00040f7800130037002e029000b7
:1007c0009e0242002e4290000483fb001e0278002d
:1007d0000433dd003e4290000482fb000402e90085
:1007e00004b2de006102620004427800e04f520071
:1007f0000200320014c3b3000100370004c3b30089
:10080000844a78001e0fe8003e4290000482fb00fc
:100810009e0f5200e9ff3e000080fa000000060033
:100820000c00fa00004f9800114f980052079800f2
:100830000042eb00244798000042eb003447980048
:100840000e4a9000ef4f520003003e001e4a9000f7
:10085000ef4f520005003600f4c0b3002447980063
:10086000f4c0b30034479800040037000e4a9000eb
:10087000244798009e4a900035479800640247003c
:100880000401780041c0b30060c0b300c4ff07009a
:100890000002eb00040f7800070037005e029000b2
:1008a0009e024200640247001e0242001442780089
:1008b000844a78001e0fe8001e027800e30f520001
:1008c000f6ff3600640247000401780041c0b3001f
:1008d0002e409000b2ff07000002eb00040f7800ea
:1008e000090037009e02780064824200de02900018
:1008f00084824200640247001e02420014427800d3
:10090000844a78001e0fe8001e027800e30f5200b0
:10091000f4ff3600640247000401780041c0b300d0
:100920003e4090009eff07000002eb00040f78009d
:10093000090037009e02780068824200de029000c3
:1009400084824200640247001e0242001442780082
:10095000844a78001e0fe8001e027800e30f520060
:10096000f4ff36000080fa00000006000c00fa00d8
:100970003007980041079800520798000002eb00ea
:10098000040f78000002eb0014079800de029000cc
:100990000042eb00944298000002eb00240798000c
:1009a000460037001e027800e20f520005003a00b0
:1009b0001e0290000402e800140798000002eb00f9
:1009c000040f7800be0290001e02900004824200d4
:1009d0009442780004c3b30084cf520014003a005c
:1009e0001e027800e10f520007003a00ce0290008c
:1009f0002e0290008482420014c0b300844a780022
:100a000024002000040f78001e027800e00f52003e
:100a100007003a00ce0290002e029000848242002d
:100a20000042eb00844a780014002000040f780094
:100a3000be0290001e0290000482420094427800a0
:100a400014c3b30084cf520014003a001e02780091
:100a5000e10f520007003a00ce0290002e029000f3
:100a6000848242000042eb00844a78002400200087
:100a7000040f78001e027800e00f520007003a00d1
:100a8000ce0290002e0290008482420014c0b30077
:100a9000844a780014002000040f78001e029000a1
:100aa000ec0f520002003a000002eb00140798001d
:100ab0002e0290000402e800240798002e02900005
:100ac000f70f5200b7ff3600de02900014c0b300eb
:100ad000944298000080fa00000006000400fa002a
:100ae000100798000042eb00044f78000042eb0032
:100af000044f7800110037009e4278000582fb0009
:100b00006c22b900040278009e0290000482420028
:100b100004007800e50107009e4278000582fb0092
:100b20006c22b900040278009e0290008482420088
:100b30001e42e800844a78001e4fe8001e427800fa
:100b4000ef4f5200ecff36000080fa000000060074
:100b50000200fa00000f78009e0278000042eb00cd
:100b6000a44298009e0278000042eb00844a78007c
:100b70009e0278000042eb00c44298009e0278007a
:100b80000042eb00944298009e0278000042eb0085
:100b9000b44298000080fa00000006000c00fa0041
:100ba000881f7800100798002107980032079800e6
:100bb00043079800540798000042eb00044f780068
:100bc0000042eb00044f78001d0037009e42780081
:100bd0000582fb006c22b900040278009e0290009e
:100be00004824200de0190003e01900011c0b3007b
:100bf00004007800180007009e4278000582fb0080
:100c0000ae029000048442009e4278000582fb0000
:100c10006c22b900040278009e0290000482420017
:100c2000de0190004e01900011c0b3000400780076
:100c30002d00070000427800044c78001e4fe800a9
:100c40001e427800ef4f5200e0ff36004f0478005c
:100c50000080fa00000006001400fa006007980007
:100c6000614f9800020f9800130f98006e4a900091
:100c7000ef4f520019003e00000000001e0a9000d5
:100c800044429000e04f5200fcff32009e0a900068
:100c90000042eb00c442980005000900001feb0071
:100ca000ce00b1006e029000144278000e01780070
:100cb000ee48900004407800d9fe07001e0990001d
:100cc0008e0890000e00780028ff07009e0a900012
:100cd00014c0b300844a780001003700000000000f
:100ce0000080fa00000006000e00fa0030079800ad
:100cf000014f980052079800630798000042eb00ec
:100d0000044f78000042eb00144798000042eb00cb
:100d1000244798000042eb00344798000042eb0063
:100d2000444798000e4a9000ef4f520002003600f0
:100d300024c0b300d2003700000000006e02900013
:100d400034429000e04f5200fcff3200ee0290006f
:100d50000042eb00b442980074c1b300044f780025
:100d6000c30037001e427800f34f520011003600d6
:100d70001e427800f74f52000e003e009e4278005f
:100d80000582fb00de0290000482420014427800db
:100d90008482fb001e4378000682fb00740252002e
:100da000042add00844278002e42900004c27200c2
:100db000244798001e427800ef4f52001100360081
:100dc0001e427800f34f52000e003e009e43780012
:100dd0000782fb00de029000048242001442780089
:100de0008482fb001e4378000682fb0070025200e2
:100df000042add00844278001e42900004c2720082
:100e0000144798001e427800ef4f52000b003a0042
:100e10009e4290000e4a900084cf5200070032009c
:100e20003e029000944278002e42900084cf5200ff
:100e3000020032000042eb00910037003e029000b9
:100e4000944278002e42900084cf52004c003a0029
:100e50001e429000e14f520049003a004e4290007d
:100e6000e04f520008003a003e0290008002eb0082
:100e700015029800be0290000042eb00944a9800d0
:100e800014c0b300444798001e427800eb4f520054
:100e9000140036001e427800ef4f520011003e0051
:100ea0003e029000144a9000844278009e437800ed
:100eb0000782fb005e0390000402430014427800a6
:100ec0000483fb009e4378000782fb006c02520003
:100ed0000432dd000442780004c27200be029000b9
:100ee000944a98001e427800e74f520014003600e2
:100ef0001e427800eb4f520011003e003e0290006f
:100f0000244a9000844278001e4378000682fb0049
:100f10005e03900004024300144278000483fb0047
:100f20009e4378000782fb00680252000432dd0015
:100f30000442780004c27200be029000a44a9800e5
:100f40001e427800e74f52000d003e009e4278009e
:100f50000582fb00de029000048242001442780009
:100f60008482fb001e4378000682fb00042add0019
:100f7000844278003e42900004c2720034479800d8
:100f80003e029000944278002e42900084cf52009e
:100f900036003a001e429000e24f520033003a0001
:100fa0004e429000e04f520008003a003e0290008e
:100fb0008002eb0015029800be0290000042eb0098
:100fc000944a980014c0b300444798001e42780029
:100fd000eb4f5200140036001e427800ef4f5200d3
:100fe00011003e003e029000144a900084427800b6
:100ff0009e4378000782fb005e03900004024300da
:10100000144278000483fb009e4378000782fb00b3
:101010006c0252000432dd000442780004c2720007
:10102000be029000944a98001e427800eb4f520096
:101030000e003e003e029000940290001e43780095
:101040000682fb005e039000040243001442780015
:101050000483fb009e4378000782fb000432dd001e
:10106000848272003e029000150298001e4fe90033
:101070001e427800f74f52003aff360014c0b3000a
:10108000044078000080fa0000000600801f78000d
:10109000849fbe00861f78003400f8000000200006
:1010a000a00188000000fa00644980000402e80002
:1010b0006449880065498000047d2000848f5200c7
:1010c00005003a000002eb006449880014c0b30038
:1010d00004407800b8e8b700648b20001442780020
:1010e000e04f520013003a0014c0b30004407800ef
:1010f000b6e8b700448b200014427800e04f52005d
:101100001e003a00648b20001442780061426200a5
:101110000482fb00610262004522dd002616800089
:10112000f5fd2f00850263000482720024168800fa
:10113000120037000042eb0004407800b6e8b70028
:10114000448b200014427800e04f52000b003a001c
:10115000648b200014427800614262000482fb002c
:10116000610262004522dd0026168000f5fd2f0099
:1011700085026300048272002416880034498000ce
:10118000e00f5200140032008492200014427800d4
:10119000e04f520010003a00344980000402e90098
:1011a0003449880036498000141680004422de004d
:1011b00061426200258d200085024300844a780048
:1011c00034498000e00f520003003a0014c0b3001d
:1011d00004407800b7e8b7008492200014427800f9
:1011e000e04f520005003200849220001442780043
:1011f0000442e9000440780028e9b700448b20004d
:1012000014427800e14f520010003a00548b200045
:1012100014427800e14f52000c003a00154980005a
:10122000a48b20000482420014427800e14f520057
:1012300002003a00c4a2a90001003700c4a2a8001d
:10124000144980000402e800144988001449800011
:10125000f80f52000a003a000002eb00144988001f
:101260000042eb0004407800b4e8b700840120009d
:101270003449880014c0b3000440780028e9b7005e
:101280008460a9000080fa003400f9004f03780060
:101290004f02be004f007800004006000000fa0038
:1012a000b20107000080fa00000006000200fa0008
:1012b000000f78009e0278000042eb00844a78001c
:1012c0001e0278008002eb00150298009e02780052
:1012d00004c7b300c44298009e02780024c1b30042
:1012e000d44298009e02780014c2b300e4429800f1
:1012f0009e02780024c1b300f44298009e02780058
:101300000042eb00844a98009e0278000042eb0005
:10131000a44a98009e0278000042eb00944a98008c
:101320000080fa00000006000c00fa004007980058
:10133000510798000042eb00044f7800610247001b
:1013400006000900005aeb004e02900014027800db
:10135000e6024200d4ff2700848f520003003600cb
:101360004e0290008002eb00050a78005e029000b9
:1013700014427800450020008522dd005e029000c6
:10138000140290004822de000442780004c2720079
:10139000144798005e029000140290000442780006
:1013a000244798005e029000444290003447980021
:1013b0005e029000544290000482fb004322dd0054
:1013c000844278005e029000644290000482fb0038
:1013d0004322de000442780004c2720044479800b1
:1013e0005e029000644290000482fb004522dd0012
:1013f000844278005e029000744290000482fb00f8
:101400000402d1000442780004c2720054479800dc
:101410005e029000744290000482fb004722dd00cf
:10142000844278005e029000044a900004c2720078
:10143000644798005e029000244a90000482fb00fa
:101440004422dd00844278005e029000144a90003d
:1014500004c27200744798000042eb00044f780009
:101460000f0037009e4278000582fb00040247000f
:1014700014429000ce0290009502780084407800db
:10148000050078003e0107004e029000140278002b
:101490008402e8004e029000050a78001e4fe80022
:1014a0001e427800e64f5200eeff36000080fa0040
:1014b000000006000c00fa00881f78004007980022
:1014c000510798000042eb00044f7800610247008a
:1014d00006000900005aeb004e029000e6024200ae
:1014e000d4ff2700848f52000200360014c0b300de
:1014f000530037000042eb00044f78000c00370027
:101500001e4278000484fb001e4278008482fb00a7
:101510004e02900004824200040078003e01070061
:101520000042780088024700944298001e4fe8006d
:101530001e427800e64f5200f1ff36001e42900036
:101540000482fb004422de0004427800de029000a8
:10155000844a78001e4290000482fb00c822dd000d
:101560002e4290000482fb00048272008402780004
:10157000f4ff2000848262005e0290001502980051
:101580003e429000de029000c44298004e4290001d
:101590000482fb004322de0004427800de02900059
:1015a000d44298004e4290000482fb004322dd00aa
:1015b000844278005e4290000482fb004522de00f7
:1015c0000442780004c27200f443b200de029000cc
:1015d000e44298005e4290000482fb000402420054
:1015e000844278006e4290000482fb004722de00b5
:1015f0000442780004c272007f426200de02900062
:10160000f44298006e4290000474a100de02900043
:10161000844a98007e4290000482fb004422de004f
:1016200004427800de029000a44a98007e429000b6
:101630006f426200de029000944a98000042eb0084
:10164000044078004f0478000080fa000000060093
:101650000000fa00f43b280004308800f43f20002a
:10166000143088001400200064308800040328002f
:10167000240888000002eb00040888000000000035
:1016800005088000f47c2000848f5200fcff3600a7
:101690000002eb00243088008403200044308800de
:1016a0000002eb000408880000000000040880002d
:1016b000e20f5200fdff3600c400200044308800d5
:1016c0000002eb000408880000000000040880000d
:1016d000e20f5200fdff3600140020004430880065
:1016e0000002eb00040888000000000005088000ec
:1016f00034062000848f5200fcff36006400200076
:10170000443088000002eb0004088800000000005c
:101710000508800034062000848f5200fcff36004c
:101720000080fa00000006000000fa00140020000b
:10173000443088000002eb0004088800000000002c
:101740000508800034062000848f5200fcff36001c
:101750000080fa00000006000400fa00100798005c
:1017600000000000153080000400280004826200a0
:10177000e00f5200fbff3a001e0290002430880068
:1017800044308000040f7800000000001530800015
:101790000400280004826200e00f5200fbff3a00c0
:1017a0004430800004427800044078000080fa0051
:1017b000000006000400fa00000f7800214798009e
:1017c000000000000000eb00e3ff0700004278008b
:1017d000e04f5200fbff3500000000001530800094
:1017e0000400280004826200e00f5200fbff3a0070
:1017f0001e027800243088002e4290000402fb0074
:10180000443088000080fa00000006000600fa005c
:10181000404798004e4290000402fb00ea0f52003d
:1018200005003200ed0f520007003200e90f5200b0
:10183000170032002f00370001ccb3000000eb008e
:10184000dcff07002f0037000000eb00c2ff07009d
:10185000004278008402fb00f4072000048f62003d
:10186000000420001e0f4000040420001e0f620030
:101870001e0278008442780004c8b30004c27200db
:10188000844078000000eb00caff07001d0037000d
:101890000000eb00b0ff0700004278008402fb006c
:1018a000f4072000048f62009e027800540020009c
:1018b000110009008402d8000102780065021200bc
:1018c000140798001e027800844278001e029000df
:1018d0000442780004c242008442780004c8b30085
:1018e00004c27200844078000000eb00b1ff0700e2
:1018f00004003700ce40900010002000adff07002c
:10190000000000000080fa00000006000200fa005b
:10191000000f7800050037001e027800144278009e
:101920001e0fe80004407800b8ff07001e02780090
:1019300014427800e04f5200f7ff3a000080fa00ae
:10194000000006000a00fa0040079800a2002000ec
:10195000ce0090000e0078000ffb07000e0078000c
:10196000eaff07000080fa00000006000000fa000d
:10197000f6000700d782a8000080fa0000000600e9
:101980000800fa0020079800614798003f00070010
:10199000d782a90020c0b300fd00070000427800f4
:1019a000044f78002e0290004822de0004427800a6
:1019b00004407800f600070000427800044f7800e9
:1019c0002e0290000442780004407800f0000700e6
:1019d00000427800044f78006e409000ec00070051
:1019e00000427800044f7800d782a8000000000071
:1019f0000e82e80004007800360007001e02900006
:101a000061026200e00f5200f9ff3a00280007006f
:101a10000080fa00000006000400fa001007980099
:101a2000d782a90030c0b300d90007000042780077
:101a3000044f78001e0290004822de000442780025
:101a400004407800d200070000427800044f78007c
:101a50001e0290000442780004407800cc00070089
:101a600000427800044f78000040eb00c8000700f7
:101a700000427800044f7800d782a8001e42780008
:101a8000044078000080fa00000006000200fa001e
:101a9000d782a90060c0b300bd00070000427800f3
:101aa000044f7800d782a8000080fa0000000600ea
:101ab0000200fa00d782a90040c0b300b4000700ba
:101ac00000427800044f7800d782a8000080fa0016
:101ad000000006000200fa00881f78000004780069
:101ae000d782a90050c0b300a900070000427800c7
:101af000044f78000040eb00a5000700004278008a
:101b0000044f7800d782a8000002eb00040c780094
:101b10001e4c7800080078004f0478000080fa001e
:101b2000000006000400fa000042eb00044f7800b9
:101b3000d6ff07000e82e80004007800e5ff0700ea
:101b40001e0290000402d10061426200044f78003e
:101b5000d7ff07001e427800044078000080fa009a
:101b6000000006000200fa0094012000c411880061
:101b7000b4118000044f78003002a9008411800065
:101b80000410a1000420a1008411880030a2a90043
:101b90003062a80033a2a90033e2a90094118000aa
:101ba0000460a1000470a1009411880031e2a80033
:101bb0003342a80087c0a9000080fa000000060098
:101bc0000200fa00004f780000000000951180002c
:101bd0000420200004826200e00f5200fbff3a0064
:101be0001e02fb00a41188000080fa00000006001d
:101bf0000200fa0000000000350480000400240008
:101c000004826200e00f5200fbff3200b41180003a
:101c1000044f780087c0a9001e4278000440780075
:101c20000080fa00000006000200fa00000f7800b1
:101c3000050037001e027800144278000440780046
:101c4000dfff07001e0fe8001e0278001442780034
:101c5000e04f5200f7ff3a000080fa000000060053
:101c60000a00fa0040079800a2002000ce00900071
:101c70000e00780048fa07000e007800eaff07001f
:081c80000080fa0000000600dc
:020000040000fa
:101c880000080000ba00000000000000ba080000c8
:101c98007c000000020000000000000000000000be
:101ca800000000000000000000000000000000002c
:101cb800000000000000000000000000000000001c
:101cc800000000000000000000000000000000000c
:101cd80000000000000000000100010000000100f9
:101ce80000010000000001000001000001000100e7
:101cf80000000100000000000000000000000000db
:101d080000000000000000000000000000000000cb
:101d180000000000000000000000000000000000bb
:101d280000000000000000000000000000000000ab
:101d3800000000000000000000000000000000009b
:041d48000000000097
:020000040000fa
:101d4c000000fa00d382a900e4e2a800e4c2a900d2
:101d5c00e502a900e522a9006282a8006262a8003f
:101d6c006242a8006222a8006202a8006302a800d6
:101d7c0062a2a80060c2a90061e2a8000080fa007b
:101d8c00000006000200fa00004f78009e42780026
:101d9c000582fb004413880000000000041380003f
:101dac0061026200e00f5200fcff3200441380001d
:101dbc0004427800044078000080fa00000006001d
:020000040000fa
:020000040002f8
:04aff800bdfa00009e
:020000040000fa
:020000040002f8
:04affc007f3f000093
:00000001FF
