:020000040000fa
:080000000002040000000000f2
:020000040000fa
:100008009402000094020000940200009402000090
:100018009402000094020000940200009402000080
:100028009402000094020000940200000005000001
:100038009402000094020000940200009402000060
:100048009402000094020000940200009402000050
:100058009402000094020000940200009402000040
:100068009402000094020000940200009402000030
:100078009402000094020000940200009402000020
:100088009402000094020000940200009402000010
:100098009402000094020000940200009402000000
:1000a80094020000940200009402000094020000f0
:1000b80094020000940200009402000094020000e0
:1000c80094020000940200009402000094020000d0
:1000d80094020000940200009402000094020000c0
:1000e80094020000940200009402000094020000b0
:1000f80094020000940200009402000094020000a0
:10010800940200009402000094020000940200008f
:10011800940200009402000094020000940200007f
:10012800940200009402000094020000940200006f
:10013800940200009402000094020000940200005f
:10014800940200009402000094020000940200004f
:10015800940200009402000094020000940200003f
:10016800940200009402000094020000940200002f
:10017800940200009402000094020000940200001f
:10018800940200009402000094020000940200000f
:1001980094020000940200009402000094020000ff
:1001a80094020000940200009402000094020000ef
:1001b80094020000940200009402000094020000df
:1001c80094020000940200009402000094020000cf
:1001d80094020000940200009402000094020000bf
:1001e80094020000940200009402000094020000af
:0801f8009402000094020000d3
:020000040000fa
:10020800940200009402000094020000940200008e
:10021800940200009402000094020000940200007e
:1002280094020000940200009402000000050000ff
:10023800940200009402000094020000940200005e
:10024800940200009402000094020000940200004e
:10025800940200009402000094020000940200003e
:10026800940200009402000094020000940200002e
:10027800940200009402000094020000940200001e
:10028800940200009402000094020000940200000e
:1002980094020000940200009402000094020000fe
:1002a80094020000940200009402000094020000ee
:1002b80094020000940200009402000094020000de
:1002c80094020000940200009402000094020000ce
:1002d80094020000940200009402000094020000be
:1002e80094020000940200009402000094020000ae
:1002f800940200009402000094020000940200009e
:10030800940200009402000094020000940200008d
:10031800940200009402000094020000940200007d
:10032800940200009402000094020000940200006d
:10033800940200009402000094020000940200005d
:10034800940200009402000094020000940200004d
:10035800940200009402000094020000940200003d
:10036800940200009402000094020000940200002d
:10037800940200009402000094020000940200001d
:10038800940200009402000094020000940200000d
:1003980094020000940200009402000094020000fd
:1003a80094020000940200009402000094020000ed
:1003b80094020000940200009402000094020000dd
:1003c80094020000940200009402000094020000cd
:1003d80094020000940200009402000094020000bd
:1003e80094020000940200009402000094020000ad
:0803f8009402000094020000d1
:020000040000fa
:10040000ef8320000e7f22000e0188000000000014
:1004100000012000200288000c000700805a200004
:100420000100200011000700000020000000e00093
:100430000200320000000200000000006c04020014
:10044000000000000040da000000fe004440a90067
:10045000e00020000000e000030032000000200067
:10046000a00188004440a800000006009101880017
:10047000800078000000eb0015003700e2804000ab
:1004800032a0b4009101ba00e280400032a0b40072
:100490009102ba00e280400032a0b4000002eb00fa
:1004a000472bde00f507b200602ce10004003a00a3
:1004b0000059eb008301e900fdff3e000400370016
:1004c0006128e100010032000082eb000400070017
:1004d0001101ba000200e000e8ff3a000000060047
:1004e0003159ba008301e9000c0032002159ba00e9
:1004f0008301e900080032000400e00003003a0034
:10050000e280400032a0b400f5ff370011d9ba00f4
:100510008301e900faff3a008100e800e180400031
:1005200032a0b400000006000040da000000fe0027
:10053000800178008103780007027800010037000d
:1005400085017800110009000282d80000027800bd
:100550008302e800e00f5200f9ff3a00844a780075
:10056000110009008283d8008002780001427800df
:1005700085037800e94f52000100340067424200d1
:1005800001c3b30081514200e08f5200f4ff3a00f2
:100590000300780000000600881f7800000478003f
:1005a000e08f500005003d0008007800d4c2b30081
:1005b000045878008100ea00010037000800780044
:1005c000dbff0700080078004f04780000000600f9
:020000040000fa
:1005d000486500006c6c00006f2000004c43000078
:0c05e000440000000d0a000000000000b4
:020000040000fa
:1005ec000000fa00f43b280004308800f43f20009f
:1005fc0014308800140020006430880004032800a4
:10060c00240888000002eb000408880000000000a9
:10061c0005088000f47c2000848f5200fcff36001b
:10062c000002eb0024308800840320004430880052
:10063c000002eb00040888000000000004088000a1
:10064c00e20f5200fdff3600c40020004430880049
:10065c000002eb0004088800000000000408800081
:10066c00e20f5200fdff36001400200044308800d9
:10067c000002eb0004088800000000000508800060
:10068c0034062000848f5200fcff360064002000ea
:10069c00443088000002eb000408880000000000d1
:1006ac000508800034062000848f5200fcff3600c1
:1006bc000080fa00000006000400fa001007980001
:1006cc000000000015308000040028000482620045
:1006dc00e00f5200fbff3a001e029000243088000d
:1006ec0044308000040f78000000000015308000ba
:1006fc000400280004826200e00f5200fbff3a0065
:10070c004430800004427800044078000080fa00f5
:10071c00000006000400fa00000f78002147980042
:10072c00000000000000eb00e3ff0700004278002f
:10073c00e04f5200fbff3500000000001530800038
:10074c000400280004826200e00f5200fbff3a0014
:10075c001e027800243088002e4290000402fb0018
:10076c00443088000080fa00000006000600fa0001
:10077c00404798004e4290000402fb00ea0f5200e2
:10078c0005003200ed0f520007003200e90f520055
:10079c00170032002f00370001ccb3000000eb0033
:1007ac00dcff07002f0037000000eb00c2ff070042
:1007bc00004278008402fb00f4072000048f6200e2
:1007cc00000420001e0f4000040420001e0f6200d5
:1007dc001e0278008442780004c8b30004c2720080
:1007ec00844078000000eb00caff07001d003700b2
:1007fc000000eb00b0ff0700004278008402fb0011
:10080c00f4072000048f62009e0278005400200040
:10081c00110009008402d800010278006502120060
:10082c00140798001e027800844278001e02900083
:10083c000442780004c242008442780004c8b30029
:10084c0004c27200844078000000eb00b1ff070086
:10085c0004003700ce40900010002000adff0700d0
:10086c00000000000080fa00000006000200fa0000
:10087c00000f7800050037001e0278001442780043
:10088c001e0fe80004407800b8ff07001e02780035
:10089c0014427800e04f5200f7ff3a000080fa0053
:1008ac00000006000a00fa0040079800a200200091
:1008bc00ce0090000e00780034ff07000e00780088
:1008cc00eaff07000080fa00000006001600fa009c
:1008dc00100f9800210f9800042c2200143a880065
:1008ec000002eb00243a88000082eb0064198800b7
:1008fc000002eb003416880039ff0700802e280018
:10090c00daff0700202f2800d8ff07000700090096
:10091c00001feb00005feb001e01b1008e007800a1
:10092c00600020001b0007000e007800cfff0700be
:10093c000a0007000100370000000000a516800027
:10094c000408200004826200e00f5200faff3a0013
:10095c001400200014408800f8ff37000000fa0053
:10096c0044062000140888002405800004c0a00060
:10097c0004d0a10004e0a000240588000400280095
:10098c00240888008460a9009460a8000080fa0004
:10099c00000006000600fa001007980021079800d6
:1009ac000002eb00040f78000d0037001e027800e7
:1009bc00ae029000848242001e0390001e0278005a
:1009cc000432dd00e00f520002003d0014c3b300fe
:1009dc000100370004c3b300844a78001e0fe800fe
:1009ec001e027800f00f5200f0ff36000080fa0073
:1009fc0000000600849fbe00861f78003400f800bb
:100a0c0004002000a40188000000fa0014408000bb
:100a1c00e00f52000d003a00541680004722de0011
:100a2c006142620004c2ea00614262000482fb007f
:100a3c00610262004722dd0056168000f5f72f0098
:100a4c0085026300048272005416880014408000f2
:100a5c00e10f520035003a0024408000e20f5200b2
:100a6c0005003a00044080000402e80004408800bd
:100a7c000002eb0024408800044080008402420005
:100a8c00648020000482420014027800e00f5200bf
:100a9c000c003a0024408000e10f520003003a00a1
:100aac00cae2a800240020002440880024408000d2
:100abc00e00f520003003a00cae2a9001400200023
:100acc00244088000440800084024200648020009e
:100adc000482420014027800e10f52000c003a002c
:100aec0024408000e10f520003003a00cae2a90042
:100afc00240020002440880024408000e00f520095
:100b0c0003003a00cae2a800140020002440880028
:100b1c0004408000e40f520004003a000002eb0095
:100b2c00044088000002eb00144088008460a90097
:100b3c000080fa003400f9004f0378004f02be0029
:040b4c00004006005f
:020000040000fa
:100b5000000800003e00000002000000000000004d
:100b60000000000000000100000100000000000083
:100b70000000000000000100000000000000000074
:100b80000001000000000000000000000000000064
:100b90000000000000000000000000000000000055
:100ba0000000000000000000000000000100000044
:040bb0000000000041
:020000040000fa
:020000040002f8
:04aff800bdfa00009e
:020000040000fa
:020000040002f8
:04affc007f3f000093
:00000001FF
