:020000040000fa
:080000000002040000000000f2
:020000040000fa
:100008009402000094020000940200009402000090
:100018009402000094020000940200009402000080
:100028009402000094020000940200009402000070
:100038009402000094020000940200009402000060
:020000040000fa
:020000040000fa
:100400000f8020000e7f22000e01880000000000f7
:1004100000012000200288000c000700804420001a
:100420000100200011000700000020000000e00093
:10043000020032000000020000000000d8030200a9
:10044000000000000040da000000fe004440a90067
:10045000e00520000000e000030032000000200062
:10046000a00188004440a800000006009101880017
:10047000800078000000eb0015003700e2804000ab
:1004800032a0b4009101ba00e280400032a0b40072
:100490009102ba00e280400032a0b4000002eb00fa
:1004a000472bde00f507b200602ce10004003a00a3
:1004b0000059eb008301e900fdff3e000400370016
:1004c0006128e100010032000082eb000400070017
:1004d0001101ba000200e000e8ff3a000000060047
:1004e0003159ba008301e9000c0032002159ba00e9
:1004f0008301e900080032000400e00003003a0034
:10050000e280400032a0b400f5ff370011d9ba00f4
:100510008301e900faff3a008100e800e180400031
:1005200032a0b400000006000040da000000fe0027
:10053000800178008103780007027800010037000d
:1005400085017800110009000282d80000027800bd
:100550008302e800e00f5200f9ff3a00844a780075
:10056000110009008283d8008002780001427800df
:1005700085037800e94f52000100340067424200d1
:1005800001c3b30081514200e08f5200f4ff3a00f2
:100590000300780000000600881f7800000478003f
:1005a000e08f500005003d0008007800d4c2b30081
:1005b000045878008100ea00010037000800780044
:1005c000dbff0700080078004f04780000000600f9
:020000040000fa
:1005d000546800006973000020730000747200000a
:1005e000696e00006720000069730000207300003e
:1005f000746f0000726500006420000061730000e9
:1006000020610000206300006f6e00007374000022
:10061000616e000074200000696e0000206600001a
:100620006c61000073680000206d0000656d0000c3
:100630006f720000790d00000a000000546800008d
:10064000697300002073000074720000696e00007e
:10065000672000006973000020730000746f0000c1
:100660007265000064200000696e000020530000e5
:10067000524100004d2000006d6500006d6f0000cc
:0c068000727900000d0a0000000000006c
:020000040000fa
:10068c000200fa0094012000c4118800b41180000b
:10069c00044f78003002a900841180000410a100de
:1006ac000420a1008411880030a2a9003062a800a7
:1006bc0033a2a90033e2a900941180000460a100c8
:1006cc000470a1009411880031e2a8003342a80004
:1006dc0087c0a9000080fa00000006000200fa00a2
:1006ec00004f7800000000009511800004202000cd
:1006fc0004826200e00f5200fbff3a001e02fb0076
:10070c00a41188000080fa00000006000200fa0024
:10071c000000000035048000040024000482620004
:10072c00e00f5200fbff3200b4118000044f780040
:10073c0087c0a9001e427800044078000080fa00af
:10074c00000006000200fa00000f780005003700d8
:10075c001e0278001442780004407800dfff070086
:10076c001e0fe8001e02780014427800e04f520081
:10077c00f7ff3a000080fa00000006000a00fa00b9
:10078c0040079800a2002000ce0090000e007800d8
:10079c007eff07000e007800eaff07000080fa00d9
:1007ac00000006002e00fa00501798006117980000
:1007bc0004202200143a88000002eb00243a88003e
:1007cc0040a7a9000082eb0064198800de82a80013
:1007dc00dea2a90061024700e531280026000900cd
:1007ec00355a78000042eb00046f9800a4ff070014
:1007fc0010c4b300b9ff070020c4b300b7ff070053
:10080c0030c4b300b5ff0700d0c0b300b3ff07007e
:10081c00a0c0b300b1ff0700bcff07000042780086
:10082c00044f78001e407800acff0700d0c0b30026
:10083c00aaff0700a0c0b300a8ff0700802e280065
:10084c00c0ff07000e02e80004007800bdff07009f
:10085c0090032300c9ff0700d0c0b3009fff07001f
:10086c00a0c0b3009dff070080c12f00c3ff07008d
:10087c00d0c0b30099ff0700a0c0b30097ff0700da
:04088c00dbff370057
:020000040000fa
:040890000000000064
:020000040000fa
:020000040002f8
:04aff800bdfa00009e
:020000040000fa
:020000040002f8
:04affc007f3f000093
:00000001FF
