:020000040000fa
:080000000002040000000000f2
:020000040000fa
:100008009402000094020000940200009402000090
:100018009402000094020000940200009402000080
:100028009402000094020000940200009402000070
:100038009402000094020000940200009402000060
:020000040000fa
:020000040000fa
:100400002f8020000e7f22000e01880000000000d7
:1004100000012000200288000c000700c07b2000a3
:100420000100200011000700000020000000e00093
:100430000200320000000200000000002607020057
:10044000000000000040da000000fe004440a90067
:10045000000120000000e000030032000000200046
:10046000a00188004440a800000006009101880017
:10047000800078000000eb0015003700e2804000ab
:1004800032a0b4009101ba00e280400032a0b40072
:100490009102ba00e280400032a0b4000002eb00fa
:1004a000472bde00f507b200602ce10004003a00a3
:1004b0000059eb008301e900fdff3e000400370016
:1004c0006128e100010032000082eb000400070017
:1004d0001101ba000200e000e8ff3a000000060047
:1004e0003159ba008301e9000c0032002159ba00e9
:1004f0008301e900080032000400e00003003a0034
:10050000e280400032a0b400f5ff370011d9ba00f4
:100510008301e900faff3a008100e800e180400031
:1005200032a0b400000006000040da000000fe0027
:10053000800178008103780007027800010037000d
:1005400085017800110009000282d80000027800bd
:100550008302e800e00f5200f9ff3a00844a780075
:10056000110009008283d8008002780001427800df
:1005700085037800e94f52000100340067424200d1
:1005800001c3b30081514200e08f5200f4ff3a00f2
:100590000300780000000600881f7800000478003f
:1005a000e08f500005003d0008007800d4c2b30081
:1005b000045878008100ea00010037000800780044
:1005c000dbff0700080078004f04780000000600f9
:020000040000fa
:1005d000507200006f70000065720000206900001a
:1005e0006e690000740000000d0a000000000000a9
:020000040000fa
:1005f0000000fa00970107000080fa0000000600e2
:100600000200fa00000f78009e0278000042eb0022
:10061000844a78001e0278008002eb0015029800e0
:100620009e02780004c7b300c44298009e0278007e
:1006300024c1b300d44298009e02780014c2b300d3
:10064000e44298009e02780024c1b300f44298006e
:100650009e0278000042eb00844a98000080fa0075
:10066000000006000c00fa004007980051079800af
:100670000042eb00044f78006102470005000900ca
:10068000005aeb004e02900014027800e50242008e
:10069000c4ff2700848f5200030036004e029000f2
:1006a0008002eb00050a78005e0290001442780098
:1006b000450020008522dd005e02900014029000bb
:1006c0004822de000442780004c2720014479800f9
:1006d0005e029000140290000442780024479800c3
:1006e0005e02900044429000344798005e02900001
:1006f000544290000482fb004322dd0084427800d3
:100700005e029000644290000482fb004322de00ff
:100710000442780004c27200444798005e029000d0
:10072000644290000482fb004522dd008442780090
:100730005e029000744290000482fb000402d1002b
:100740000442780004c27200544798005e02900090
:10075000744290000482fb004722dd00844278004e
:100760005e029000044a900004c272006447980040
:100770000042eb00044f78000f0037009e427800e3
:100780000582fb000402470014429000ce02900054
:100790009502780084407800050078003201070057
:1007a0004e029000140278008402e8004e0290008d
:1007b000050a78001e4fe8001e427800e54f5200ff
:1007c000eeff36000080fa00000006000c00fa0080
:1007d00040079800510798000042eb00044f780052
:1007e0006102470005000900005aeb004e0290002c
:1007f000e5024200c4ff2700848f52000200360049
:1008000014c0b300490037000042eb00044f7800e9
:100810000c0037009e4278000582fb00040247006e
:10082000144290009e4278000583fb00ce029000a7
:100830008502430084407800050078000a01070023
:100840001e4fe8001e427800e54f5200f1ff3600cf
:100850001e4290000482fb004422de000442780025
:10086000de029000844a78001e4290000482fb0061
:10087000c822dd002e4290000482fb000482720038
:1008800084027800f4ff2000848262005e029000ff
:10089000150298003e429000de029000c44298008b
:1008a0004e4290000482fb004322de0004427800a6
:1008b000de029000d44298004e4290000482fb0079
:1008c0004322dd00844278005e4290000482fb00f7
:1008d0004522de000442780004c27200f443b200f4
:1008e000de029000e44298005e4290000482fb0029
:1008f00004024200844278006e4290000482fb00b1
:100900004722de000442780004c272007f42620087
:10091000de029000f44298006e4290000474a10040
:10092000de029000844a98000042eb000440780008
:100930000080fa00000006000000fa00f43b2800e6
:1009400004308800f43f2000143088001400200098
:100950006430880004032800240888000002eb00ab
:10096000040888000000000005088000f47c2000d6
:10097000848f5200fcff36000002eb002430880018
:1009800084032000443088000002eb000408880043
:100990000000000004088000e20f5200fdff360056
:1009a000c4002000443088000002eb0004088800e6
:1009b0000000000004088000e20f5200fdff360036
:1009c00014002000443088000002eb000408880076
:1009d000000000000508800034062000848f5200cb
:1009e000fcff360064002000443088000002eb0069
:1009f000040888000000000005088000340620007c
:100a0000848f5200fcff36000080fa0000000600d0
:100a10000000fa0014002000443088000002eb00bf
:100a2000040888000000000005088000340620004b
:100a3000848f5200fcff36000080fa0000000600a0
:100a40000400fa0010079800000000001530800034
:100a50000400280004826200e00f5200fbff3a000d
:100a60001e0290002430880044308000040f78007b
:100a7000000000001530800004002800048262009d
:100a8000e00f5200fbff3a0044308000044278003f
:100a9000044078000080fa00000006000400fa001c
:100aa000000f780021479800000000000000eb00d4
:100ab000e3ff070000427800e04f5200fbff3500e3
:100ac000000000001530800004002800048262004d
:100ad000e00f5200fbff3a001e027800243088002d
:100ae0002e4290000402fb00443088000080fa008f
:100af000000006000600fa00404798004e429000b1
:100b00000402fb00ea0f520005003200ed0f520014
:100b100007003200e90f5200170032002f003700a3
:100b200001ccb3000000eb00dcff07002f00370012
:100b30000000eb00c2ff0700004278008402fb00c7
:100b4000f4072000048f6200000420001e0f400004
:100b5000040420001e0f62001e0278008442780008
:100b600004c8b30004c27200844078000000eb00a7
:100b7000caff07001d0037000000eb00b0ff0700b0
:100b8000004278008402fb00f4072000048f62001a
:100b90009e02780054002000110009008402d80051
:100ba0000102780065021200140798001e02780006
:100bb000844278001e0290000442780004c2420081
:100bc0008442780004c8b30004c2720084407800f4
:100bd0000000eb00b1ff070004003700ce4090009a
:100be00010002000adff0700000000000080fa00a8
:100bf000000006000200fa00000f78000500370030
:100c00001e027800144278001e0fe80004407800ad
:100c1000b8ff07001e02780014427800e04f52002f
:100c2000f7ff3a000080fa00000006000a00fa0010
:100c300040079800a2002000ce0090000e0078002f
:100c400055fe07000e007800eaff07000080fa005a
:100c5000000006000000fa00a7000700d782a800e5
:100c60000080fa00000006000800fa002007980043
:100c7000614798003f000700d782a90020c0b30059
:100c8000ae00070000427800044f78002e0290006a
:100c90004822de000442780004407800a7000700e4
:100ca00000427800044f78002e0290000442780041
:100cb00004407800a100070000427800044f78004b
:100cc0006e4090009d00070000427800044f7800bd
:100cd000d782a800000000000e82e800040078001f
:100ce000360007001e02900061026200e00f520011
:100cf000f9ff3a00280007000080fa000000060013
:100d00000400fa0010079800d782a90030c0b30091
:100d10008a00070000427800044f78001e0290000d
:100d20004822de0004427800044078008300070077
:100d300000427800044f78001e02900004427800c0
:100d4000044078007d00070000427800044f7800de
:100d50000040eb007900070000427800044f780063
:100d6000d782a8001e427800044078000080fa0074
:100d7000000006000200fa00d782a90060c0b3009c
:100d80006e00070000427800044f7800d782a80068
:100d90000080fa00000006000200fa00d782a900d5
:100da00040c0b3006500070000427800044f78009f
:100db000d782a8000080fa00000006000200fa00b6
:100dc000881f780000047800d782a90050c0b300c3
:100dd0005a00070000427800044f78000040eb0002
:100de0005600070000427800044f7800d782a80020
:100df0000002eb00040c78001e4c7800080078001c
:100e00004f0478000080fa00000006000400fa0099
:100e10000042eb00044f7800d6ff07000e82e80086
:100e200004007800e5ff07001e0290000402d100d4
:100e300061426200044f7800d7ff07001e4278002d
:100e4000044078000080fa00000006001800fa0054
:100e5000200f9800310f9800b7fe0700e4fd07004f
:100e60000e007800e6fd070014c0b300044f7800c0
:100e70000082eb0064198800802e28005dff0700c7
:100e8000402f28005bff07008e00780000802000c4
:100e9000f4fd07008e00780000802000f1fd0700bf
:100ea0008e00780000802000eefd07006a024700f7
:100eb000840078000000eb0044fe07006e4a9000ba
:100ec000044078000bff0700ffff37000400fa0022
:100ed000100798001e029000040f780001003700f0
:100ee0001e0fe9001e027800e00f5200fcff3a00de
:100ef0000080fa00000006000000fa00d382a9007a
:100f0000e4e2a800e4c2a900e502a900e522a900e4
:100f10006282a8006262a8006242a8006222a80061
:100f20006202a8006302a80062a2a80060c2a90031
:100f300061e2a8000080fa00000006000200fa004a
:100f4000004f78009e4278000582fb004413880021
:100f5000000000000413800061026200e00f5200f4
:100f6000fcff320044138000044278000440780003
:080f70000080fa0000000600f9
:020000040000fa
:100f7800000800000200000002000000000000005d
:040f88000000000065
:020000040000fa
:020000040002f8
:04aff800bdfa00009e
:020000040000fa
:020000040002f8
:04affc007f3f000093
:00000001FF
