:020000040000fa
:080000000002040000000000f2
:020000040000fa
:100008009402000094020000940200009402000090
:100018009402000094020000940200009402000080
:10002800940200009402000094020000ce02000036
:100038009402000094020000940200009402000060
:100048009402000094020000940200009402000050
:100058009402000094020000940200009402000040
:100068009402000094020000940200009402000030
:100078009402000094020000940200009402000020
:100088009402000094020000940200009402000010
:100098009402000094020000940200009402000000
:1000a80094020000940200009402000094020000f0
:1000b80094020000940200009402000094020000e0
:1000c80094020000940200009402000094020000d0
:1000d80094020000940200009402000094020000c0
:1000e80094020000940200009402000094020000b0
:1000f80094020000940200009402000094020000a0
:10010800940200009402000094020000940200008f
:10011800940200009402000094020000940200007f
:10012800940200009402000094020000940200006f
:10013800940200009402000094020000940200005f
:10014800940200009402000094020000940200004f
:10015800940200009402000094020000940200003f
:10016800940200009402000094020000940200002f
:10017800940200009402000094020000940200001f
:10018800940200009402000094020000940200000f
:1001980094020000940200009402000094020000ff
:1001a80094020000940200009402000094020000ef
:1001b80094020000940200009402000094020000df
:1001c80094020000940200009402000094020000cf
:1001d80094020000940200009402000094020000bf
:1001e80094020000940200009402000094020000af
:0801f8009402000094020000d3
:020000040000fa
:10020800940200009402000094020000940200008e
:10021800940200009402000094020000940200007e
:10022800940200009402000094020000ce02000034
:10023800940200009402000094020000940200005e
:10024800940200009402000094020000940200004e
:10025800940200009402000094020000940200003e
:10026800940200009402000094020000940200002e
:10027800940200009402000094020000940200001e
:10028800940200009402000094020000940200000e
:1002980094020000940200009402000094020000fe
:1002a80094020000940200009402000094020000ee
:1002b80094020000940200009402000094020000de
:1002c80094020000940200009402000094020000ce
:1002d80094020000940200009402000094020000be
:1002e80094020000940200009402000094020000ae
:1002f800940200009402000094020000940200009e
:10030800940200009402000094020000940200008d
:10031800940200009402000094020000940200007d
:10032800940200009402000094020000940200006d
:10033800940200009402000094020000940200005d
:10034800940200009402000094020000940200004d
:10035800940200009402000094020000940200003d
:10036800940200009402000094020000940200002d
:10037800940200009402000094020000940200001d
:10038800940200009402000094020000940200000d
:1003980094020000940200009402000094020000fd
:1003a80094020000940200009402000094020000ed
:1003b80094020000940200009402000094020000dd
:1003c80094020000940200009402000094020000cd
:1003d80094020000940200009402000094020000bd
:1003e80094020000940200009402000094020000ad
:0803f8009402000094020000d1
:020000040000fa
:100400006f8620000e7f22000e0188000000000091
:1004100000012000200288000c000700003b2000a3
:100420000100200011000700000020000000e00093
:1004300002003200000002000000000098020200ea
:10044000000000000040da000000fe004440a90067
:10045000000020000000e000030032000000200047
:10046000a00188004440a800000006009101880017
:10047000800078000000eb0015003700e2804000ab
:1004800032a0b4009101ba00e280400032a0b40072
:100490009102ba00e280400032a0b4000002eb00fa
:1004a000472bde00f507b200602ce10004003a00a3
:1004b0000059eb008301e900fdff3e000400370016
:1004c0006128e100010032000082eb000400070017
:1004d0001101ba000200e000e8ff3a000000060047
:1004e0003159ba008301e9000c0032002159ba00e9
:1004f0008301e900080032000400e00003003a0034
:10050000e280400032a0b400f5ff370011d9ba00f4
:100510008301e900faff3a008100e800e180400031
:1005200032a0b400000006000040da000000fe0027
:020000040000fa
:100530000400fa00000f780011079800042c220034
:10054000143a88000002eb00243a88000082eb0095
:10055000641988000002eb003416880001000700cf
:10056000ffff37000000fa0044062000140888004e
:100570002405800004c0a00004d0a10004e0a00075
:100580002405880004002800240888008460a9004d
:100590009460a8000080fa0000000600849fbe005e
:1005a000861f78003400f80004002000a4018800b1
:1005b0000000fa0024438000e00f520030003a00af
:1005c00014438000e00f520016003a0004438000fc
:1005d0008402420004802000048242001402780059
:1005e00004427800614262000482fb006102620002
:1005f0004622dd0056168000f5fb2f0085026300c1
:100600000482720054168800144380000402e8003b
:1006100014438800044380000402e8000443880077
:10062000020037000002eb001443880054168000db
:100630004722de006142620004c2ea0061426200b9
:100640000482fb00610262004722dd005616800032
:10065000f5f72f00850263000482720054168800ab
:1006600004438000f70f520005003a000002eb003f
:1006700004438800244380000402e80024438800e7
:1006800024438000e10f52002f003a001443800001
:10069000e00f520016003a0004438000840242003a
:1006a000048320000482420014027800044278008f
:1006b000614262000482fb00610262004622dd00aa
:1006c00056168000f5fb2f0085026300048272003d
:1006d00054168800144380000402e8001443880084
:1006e000044380000402e80004438800020037004d
:1006f0000002eb0014438800541680004722de00fd
:100700006142620004c2ea00614262000482fb00ae
:10071000610262004722dd0056168000f5f72f00c7
:10072000850263000482720054168800044380002e
:10073000f70f520004003a000002eb000443880067
:100740000002eb00244388008460a9000080fa00c6
:100750003400f9004f0378004f02be00004006004d
:020000040000fa
:100760000008000066000000020000000000010018
:100770000001000000000100000000000000010076
:100780000000000001000000000100000000010066
:100790000001000000000000000100000000010056
:1007a0000000000001000000000100000000010046
:1007b0000001000000000100000000000000010036
:1007c0000000000001000000000100000100000026
:1007d0000000000001000000000100000000010016
:1007e0000000000001000000000100000000000007
:0807f000000000000000000001
:020000040000fa
:020000040002f8
:04aff800bdfa00009e
:020000040000fa
:020000040002f8
:04affc007f3f000093
:00000001FF
