:020000040000fa
:080000000002040000000000f2
:020000040000fa
:100008009402000094020000940200009402000090
:100018009402000094020000940200009402000080
:10002800940200009402000094020000720500008f
:100038009402000094020000940200009402000060
:100048009402000094020000940200009402000050
:100058009402000094020000940200009402000040
:100068009402000094020000940200009402000030
:100078009402000094020000940200009402000020
:100088009402000094020000940200009402000010
:100098009402000094020000940200009402000000
:1000a80094020000940200009402000094020000f0
:1000b80094020000940200009402000094020000e0
:1000c80094020000940200009402000094020000d0
:1000d80094020000940200009402000094020000c0
:1000e80094020000940200009402000094020000b0
:1000f80094020000940200009402000094020000a0
:10010800940200009402000094020000940200008f
:10011800940200009402000094020000940200007f
:10012800940200009402000094020000940200006f
:10013800940200009402000094020000940200005f
:10014800940200009402000094020000940200004f
:10015800940200009402000094020000940200003f
:10016800940200009402000094020000940200002f
:10017800940200009402000094020000940200001f
:10018800940200009402000094020000940200000f
:1001980094020000940200009402000094020000ff
:1001a80094020000940200009402000094020000ef
:1001b80094020000940200009402000094020000df
:1001c80094020000940200009402000094020000cf
:1001d80094020000940200009402000094020000bf
:1001e80094020000940200009402000094020000af
:0801f8009402000094020000d3
:020000040000fa
:10020800940200009402000094020000940200008e
:10021800940200009402000094020000940200007e
:10022800940200009402000094020000720500008d
:10023800940200009402000094020000940200005e
:10024800940200009402000094020000940200004e
:10025800940200009402000094020000940200003e
:10026800940200009402000094020000940200002e
:10027800940200009402000094020000940200001e
:10028800940200009402000094020000940200000e
:1002980094020000940200009402000094020000fe
:1002a80094020000940200009402000094020000ee
:1002b80094020000940200009402000094020000de
:1002c80094020000940200009402000094020000ce
:1002d80094020000940200009402000094020000be
:1002e80094020000940200009402000094020000ae
:1002f800940200009402000094020000940200009e
:10030800940200009402000094020000940200008d
:10031800940200009402000094020000940200007d
:10032800940200009402000094020000940200006d
:10033800940200009402000094020000940200005d
:10034800940200009402000094020000940200004d
:10035800940200009402000094020000940200003d
:10036800940200009402000094020000940200002d
:10037800940200009402000094020000940200001d
:10038800940200009402000094020000940200000d
:1003980094020000940200009402000094020000fd
:1003a80094020000940200009402000094020000ed
:1003b80094020000940200009402000094020000dd
:1003c80094020000940200009402000094020000cd
:1003d80094020000940200009402000094020000bd
:1003e80094020000940200009402000094020000ad
:0803f8009402000094020000d1
:020000040000fa
:100400006f8720000e7f22000e0188000000000090
:1004100000012000200288000c000700607f2000ff
:100420000100200011000700000020000000e00093
:10043000020032000000020000000000f002020092
:10044000000000000040da000000fe004440a90067
:10045000800020000000e0000300320000002000c7
:10046000a00188004440a800000006009101880017
:10047000800078000000eb0015003700e2804000ab
:1004800032a0b4009101ba00e280400032a0b40072
:100490009102ba00e280400032a0b4000002eb00fa
:1004a000472bde00f507b200602ce10004003a00a3
:1004b0000059eb008301e900fdff3e000400370016
:1004c0006128e100010032000082eb000400070017
:1004d0001101ba000200e000e8ff3a000000060047
:1004e0003159ba008301e9000c0032002159ba00e9
:1004f0008301e900080032000400e00003003a0034
:10050000e280400032a0b400f5ff370011d9ba00f4
:100510008301e900faff3a008100e800e180400031
:1005200032a0b400000006000040da000000fe0027
:10053000800178008103780007027800010037000d
:1005400085017800110009000282d80000027800bd
:100550008302e800e00f5200f9ff3a00844a780075
:10056000110009008283d8008002780001427800df
:1005700085037800e94f52000100340067424200d1
:1005800001c3b30081514200e08f5200f4ff3a00f2
:100590000300780000000600881f7800000478003f
:1005a000e08f500005003d0008007800d4c2b30081
:1005b000045878008100ea00010037000800780044
:1005c000dbff0700080078004f04780000000600f9
:020000040000fa
:1005d000696e000069740000000d00000a00000050
:020000040000fa
:1005e0000400fa00000f780011079800042c220084
:1005f000143a88000002eb00243a88000082eb00e5
:10060000641988000002eb0034168800f409200009
:10061000041688000082eb0094168800ac010700e5
:10062000a281200011c0b30010c0b30095000700e4
:1006300021802000a0812000d300070014002000aa
:1006400074438800802e280050020700d02e280016
:100650004e0207005c0007000100370000000000a8
:10066000844380000402e8008443880085438000be
:1006700004352c00848f520028003a000002eb0061
:1006800084438800944380000402e8009443880077
:1006900094438000e30f520020003a000002eb0078
:1006a0009443880074428000e00f52000e003a002c
:1006b000a281200021c0b30010c0b3007100070068
:1006c0000002eb007443880021802000a0812000fc
:1006d000ad000700140020007443880014002000bf
:1006e000744288000d003700a281200011c0b300c1
:1006f00010c0b300630007000002eb0074438800e1
:1007000021802000a08120009f000700140020000d
:10071000744388000002eb0074428800b4428000f9
:10072000e10f5200cdff3a000002eb00d4428800f6
:100730001b003700d5428000648220000482420002
:1007400014427800e14f520006003a00d442800083
:10075000ef021200d48520008482420014c3b3004b
:10076000844a7800d54280006482200004824200de
:1007700014427800e04f520006003a00d442800054
:10078000ef021200d48520008482420004c3b3002b
:10079000844a7800d44280000402e800d4428800f1
:1007a000d4428000ef0f5200e2ff3400d0852000d9
:1007b000f6010700d02e2800f40107000002eb002c
:1007c000b4428800a6ff37000000fa00840c200025
:1007d000140888002405800004c0a00004d0a100f3
:1007e00004e0a000240588000400280024088800f4
:1007f0008460a9009460a8000080fa000000060050
:100800000600fa0020479800314798002207980018
:100810000002eb00040f7800140037001e0278007d
:10082000ae029000848242002e4290000403fb003e
:100830001e0278000433dd003e4290000402fb00fb
:100840000402e90004b2de006102620004427800a2
:10085000e04f52000200320014c3b3000100370021
:1008600004c3b300844a78001e0fe8003e429000a3
:100870000402fb009e0f5200e8ff3c000080fa00db
:10088000000006000a00fa006047980071479800cf
:10089000420798000e82e8000401780041c0b300ce
:1008a00060c0b300d6ff07000002eb00040f780021
:1008b000080037001e027800ce02900084824200b9
:1008c0000e82e8001e02420014427800844a78003a
:1008d0001e0fe8001e027800e30f5200f5ff3400ff
:1008e0000e82e8000401780041c0b3006e40900021
:1008f000c3ff07000002eb00040f78000900370077
:100900001e02780064024200ce02900084824200ff
:100910000e82e8001e02420014427800844a7800e9
:100920001e0fe8001e027800e30f5200f4ff3400af
:100930000e82e8000401780041c0b3007e409000c0
:10094000afff07000002eb00040f7800090037003a
:100950001e02780068024200ce02900084824200ab
:100960000e82e8001e02420014427800844a780099
:100970001e0fe8001e027800e30f5200f4ff34005f
:100980000080fa00000006000a00fa003007980014
:10099000410798000002eb00040f78000002eb0012
:1009a000140798000002eb00240798004800370065
:1009b0001e027800e20f520005003a001e0290006d
:1009c0000402e800140798000002eb00040f78000e
:1009d0001e029000be029000048242009442780001
:1009e00004c3b30084cf520014003a001e02780002
:1009f000e10f520007003a002e029000ce02900054
:100a00008482420014c0b300844a7800240020008d
:100a1000040f78001e027800e00f520007003a0031
:100a20002e029000ce029000848242000042eb0031
:100a3000844a780014002000040f78001e02900001
:100a4000be029000048242009442780014c3b300b6
:100a500084cf520014003a001e027800e10f5200c9
:100a600007003a002e029000ce02900084824200dd
:100a70000042eb00844a780024002000040f780034
:100a80001e027800e00f520007003a002e0290008c
:100a9000ce0290008482420014c0b300844a7800e1
:100aa00014002000040f78001e029000ec0f52008a
:100ab00004003a000002eb00140798001400200024
:100ac000044088002e0290000402e80024079800e9
:100ad0002e029000f70f5200b5ff34000080fa009c
:100ae00000000600801f7800849fbe00861f7800eb
:100af0003400f80000002000a00188000000fa0087
:100b0000a44280000402e800a4428800a5428000bc
:100b1000047d2000848f520004003a000002eb00a4
:100b2000a44288001400200004408800c4428000d1
:100b3000e00f520014003400d486200014427800e4
:100b4000e04f520010003a00c44280000403e90064
:100b5000141680004422de0061426200658220009b
:100b600085024300844a7800c44280000402e90000
:100b7000c4428800c4428000e10f520002003a00e3
:100b800014002000b4428800d4862000144278006b
:100b9000e04f520005003200d48620001442780055
:100ba0000442e900044078006de8b700a4438000e7
:100bb000e00f520011003a0014002000a443880006
:100bc00004408000e00f52001c003a00a443800063
:100bd00004427800614262000482fb00610262000c
:100be0004722dd0056168000f5f72f0085026300ce
:100bf0000482720054168800100037000002eb00d7
:100c0000a443880004408000e00f52000b003a002b
:100c1000a443800004427800614262000482fb0029
:100c2000610262004722dd0056168000f5f72f00b2
:100c3000850263000482720054168800044080001c
:100c4000e10f52000f003a0074438000e10f5200a0
:100c50000c003a008542800024802000048242007b
:100c600014427800e14f520002003a00cae2a800a4
:100c700001003700cae2a900844280000402e800b3
:100c80008442880084428000f80f520009003a0034
:100c90000002eb00844288000002eb000440880060
:100ca00084012000c442880014c0b30004407800ce
:100cb0006de8b7008460a9000080fa003400f900f4
:100cc0004f0378004f02be004f007800004006003e
:100cd0000000fa00f43b280004308800f43f2000b4
:100ce00014308800140020006430880004032800b9
:100cf000240888000002eb000408880000000000bf
:100d000005088000f47c2000848f5200fcff360030
:100d10000002eb0024308800840320004430880067
:100d20000002eb00040888000000000004088000b6
:100d3000e20f5200fdff3600c4002000443088005e
:100d40000002eb0004088800000000000408800096
:100d5000e20f5200fdff36001400200044308800ee
:100d60000002eb0004088800000000000508800075
:100d700034062000848f5200fcff360064002000ff
:100d8000443088000002eb000408880000000000e6
:100d90000508800034062000848f5200fcff3600d6
:100da0000080fa00000006000000fa001400200095
:100db000443088000002eb000408880000000000b6
:100dc0000508800034062000848f5200fcff3600a6
:100dd0000080fa00000006000400fa0010079800e6
:100de000000000001530800004002800048262002a
:100df000e00f5200fbff3a001e02900024308800f2
:100e000044308000040f780000000000153080009e
:100e10000400280004826200e00f5200fbff3a0049
:100e20004430800004427800044078000080fa00da
:100e3000000006000400fa00000f78002147980027
:100e4000000000000000eb00e3ff07000042780014
:100e5000e04f5200fbff350000000000153080001d
:100e60000400280004826200e00f5200fbff3a00f9
:100e70001e027800243088002e4290000402fb00fd
:100e8000443088000080fa00000006000600fa00e6
:100e9000404798004e4290000402fb00ea0f5200c7
:100ea00005003200ed0f520007003200e90f52003a
:100eb000170032002f00370001ccb3000000eb0018
:100ec000dcff07002f0037000000eb00c2ff070027
:100ed000004278008402fb00f4072000048f6200c7
:100ee000000420001e0f4000040420001e0f6200ba
:100ef0001e0278008442780004c8b30004c2720065
:100f0000844078000000eb00caff07001d00370096
:100f10000000eb00b0ff0700004278008402fb00f5
:100f2000f4072000048f62009e0278005400200025
:100f3000110009008402d800010278006502120045
:100f4000140798001e027800844278001e02900068
:100f50000442780004c242008442780004c8b3000e
:100f600004c27200844078000000eb00b1ff07006b
:100f700004003700ce40900010002000adff0700b5
:100f8000000000000080fa00000006000200fa00e5
:100f9000000f7800050037001e0278001442780028
:100fa0001e0fe80004407800b8ff07001e0278001a
:100fb00014427800e04f5200f7ff3a000080fa0038
:100fc000000006000a00fa0040079800a200200076
:100fd000ce0090000e0078006ffd07000e00780034
:0c0fe000eaff07000080fa000000060095
:020000040000fa
:100fec000008000076000000020000000000000075
:100ffc0000000000000000000000000000000000e5
:10100c0000000000000000000000000000000000d4
:10101c0000000000000000000000000000000000c4
:10102c0000000000000000000000000000000000b4
:10103c0000000000000000000000000000000000a4
:10104c000000000000000000000000000000000094
:10105c000000000000000000000000000000000084
:10106c000000000000000000000000000000000074
:10107c000000000000000000000000000000000064
:10108c000000000000000000000000000000000054
:020000040000fa
:020000040002f8
:04aff800bdfa00009e
:020000040000fa
:020000040002f8
:04affc007f3f000093
:00000001FF
